{
  "_format": "hh-sol-artifact-1",
  "contractName": "LendingPool",
  "sourceName": "contracts/LendingPool.sol",
  "abi": [
    {
      "inputs": [
        {
          "internalType": "address",
          "name": "_ticketNFTAddress",
          "type": "address"
        },
        {
          "internalType": "address",
          "name": "_oracleAddress",
          "type": "address"
        },
        {
          "internalType": "address",
          "name": "_usdcAddress",
          "type": "address"
        }
      ],
      "stateMutability": "nonpayable",
      "type": "constructor"
    },
    {
      "inputs": [],
      "name": "ReentrancyGuardReentrantCall",
      "type": "error"
    },
    {
      "anonymous": false,
      "inputs": [
        {
          "indexed": true,
          "internalType": "address",
          "name": "user",
          "type": "address"
        },
        {
          "indexed": false,
          "internalType": "uint256",
          "name": "amount",
          "type": "uint256"
        }
      ],
      "name": "Borrowed",
      "type": "event"
    },
    {
      "anonymous": false,
      "inputs": [
        {
          "indexed": true,
          "internalType": "address",
          "name": "user",
          "type": "address"
        },
        {
          "indexed": true,
          "internalType": "uint256",
          "name": "tokenId",
          "type": "uint256"
        },
        {
          "indexed": false,
          "internalType": "uint256",
          "name": "value",
          "type": "uint256"
        }
      ],
      "name": "CollateralDeposited",
      "type": "event"
    },
    {
      "anonymous": false,
      "inputs": [
        {
          "indexed": true,
          "internalType": "address",
          "name": "user",
          "type": "address"
        },
        {
          "indexed": true,
          "internalType": "address",
          "name": "liquidator",
          "type": "address"
        },
        {
          "indexed": false,
          "internalType": "uint256[]",
          "name": "tokenIds",
          "type": "uint256[]"
        }
      ],
      "name": "CollateralSeized",
      "type": "event"
    },
    {
      "anonymous": false,
      "inputs": [
        {
          "indexed": true,
          "internalType": "address",
          "name": "user",
          "type": "address"
        },
        {
          "indexed": true,
          "internalType": "uint256",
          "name": "tokenId",
          "type": "uint256"
        },
        {
          "indexed": false,
          "internalType": "uint256",
          "name": "value",
          "type": "uint256"
        }
      ],
      "name": "CollateralWithdrawn",
      "type": "event"
    },
    {
      "anonymous": false,
      "inputs": [
        {
          "indexed": true,
          "internalType": "address",
          "name": "engine",
          "type": "address"
        }
      ],
      "name": "LiquidationEngineSet",
      "type": "event"
    },
    {
      "anonymous": false,
      "inputs": [
        {
          "indexed": true,
          "internalType": "address",
          "name": "user",
          "type": "address"
        },
        {
          "indexed": false,
          "internalType": "uint256",
          "name": "amount",
          "type": "uint256"
        }
      ],
      "name": "Repaid",
      "type": "event"
    },
    {
      "anonymous": false,
      "inputs": [
        {
          "indexed": false,
          "internalType": "uint256",
          "name": "ltv",
          "type": "uint256"
        },
        {
          "indexed": false,
          "internalType": "uint256",
          "name": "threshold",
          "type": "uint256"
        },
        {
          "indexed": false,
          "internalType": "uint256",
          "name": "rate",
          "type": "uint256"
        }
      ],
      "name": "RiskParametersUpdated",
      "type": "event"
    },
    {
      "inputs": [
        {
          "internalType": "uint256",
          "name": "amount",
          "type": "uint256"
        }
      ],
      "name": "borrow",
      "outputs": [],
      "stateMutability": "nonpayable",
      "type": "function"
    },
    {
      "inputs": [
        {
          "internalType": "uint256",
          "name": "",
          "type": "uint256"
        }
      ],
      "name": "collateralOwner",
      "outputs": [
        {
          "internalType": "address",
          "name": "",
          "type": "address"
        }
      ],
      "stateMutability": "view",
      "type": "function"
    },
    {
      "inputs": [
        {
          "internalType": "uint256",
          "name": "tokenId",
          "type": "uint256"
        }
      ],
      "name": "depositCollateral",
      "outputs": [],
      "stateMutability": "nonpayable",
      "type": "function"
    },
    {
      "inputs": [
        {
          "internalType": "uint256",
          "name": "amount",
          "type": "uint256"
        }
      ],
      "name": "fundPool",
      "outputs": [],
      "stateMutability": "nonpayable",
      "type": "function"
    },
    {
      "inputs": [
        {
          "internalType": "address",
          "name": "user",
          "type": "address"
        }
      ],
      "name": "getCollateralTokenIds",
      "outputs": [
        {
          "internalType": "uint256[]",
          "name": "",
          "type": "uint256[]"
        }
      ],
      "stateMutability": "view",
      "type": "function"
    },
    {
      "inputs": [
        {
          "internalType": "address",
          "name": "user",
          "type": "address"
        }
      ],
      "name": "getHealthFactor",
      "outputs": [
        {
          "internalType": "uint256",
          "name": "",
          "type": "uint256"
        }
      ],
      "stateMutability": "view",
      "type": "function"
    },
    {
      "inputs": [
        {
          "internalType": "address",
          "name": "user",
          "type": "address"
        }
      ],
      "name": "getOutstandingDebt",
      "outputs": [
        {
          "internalType": "uint256",
          "name": "",
          "type": "uint256"
        }
      ],
      "stateMutability": "view",
      "type": "function"
    },
    {
      "inputs": [],
      "name": "i_admin",
      "outputs": [
        {
          "internalType": "address",
          "name": "",
          "type": "address"
        }
      ],
      "stateMutability": "view",
      "type": "function"
    },
    {
      "inputs": [],
      "name": "interestRate",
      "outputs": [
        {
          "internalType": "uint256",
          "name": "",
          "type": "uint256"
        }
      ],
      "stateMutability": "view",
      "type": "function"
    },
    {
      "inputs": [
        {
          "internalType": "address",
          "name": "",
          "type": "address"
        }
      ],
      "name": "lastInterestUpdate",
      "outputs": [
        {
          "internalType": "uint256",
          "name": "",
          "type": "uint256"
        }
      ],
      "stateMutability": "view",
      "type": "function"
    },
    {
      "inputs": [],
      "name": "liquidationEngineAddress",
      "outputs": [
        {
          "internalType": "address",
          "name": "",
          "type": "address"
        }
      ],
      "stateMutability": "view",
      "type": "function"
    },
    {
      "inputs": [],
      "name": "liquidationThreshold",
      "outputs": [
        {
          "internalType": "uint256",
          "name": "",
          "type": "uint256"
        }
      ],
      "stateMutability": "view",
      "type": "function"
    },
    {
      "inputs": [],
      "name": "loanToValue",
      "outputs": [
        {
          "internalType": "uint256",
          "name": "",
          "type": "uint256"
        }
      ],
      "stateMutability": "view",
      "type": "function"
    },
    {
      "inputs": [
        {
          "internalType": "address",
          "name": "",
          "type": "address"
        },
        {
          "internalType": "address",
          "name": "",
          "type": "address"
        },
        {
          "internalType": "uint256",
          "name": "",
          "type": "uint256"
        },
        {
          "internalType": "bytes",
          "name": "",
          "type": "bytes"
        }
      ],
      "name": "onERC721Received",
      "outputs": [
        {
          "internalType": "bytes4",
          "name": "",
          "type": "bytes4"
        }
      ],
      "stateMutability": "pure",
      "type": "function"
    },
    {
      "inputs": [],
      "name": "pricingOracle",
      "outputs": [
        {
          "internalType": "contract IPricingOracle",
          "name": "",
          "type": "address"
        }
      ],
      "stateMutability": "view",
      "type": "function"
    },
    {
      "inputs": [
        {
          "internalType": "uint256",
          "name": "amount",
          "type": "uint256"
        }
      ],
      "name": "repay",
      "outputs": [
        {
          "internalType": "uint256",
          "name": "",
          "type": "uint256"
        }
      ],
      "stateMutability": "nonpayable",
      "type": "function"
    },
    {
      "inputs": [],
      "name": "repayAll",
      "outputs": [
        {
          "internalType": "uint256",
          "name": "",
          "type": "uint256"
        }
      ],
      "stateMutability": "nonpayable",
      "type": "function"
    },
    {
      "inputs": [
        {
          "internalType": "address",
          "name": "user",
          "type": "address"
        },
        {
          "internalType": "address",
          "name": "liquidator",
          "type": "address"
        }
      ],
      "name": "seizeCollateral",
      "outputs": [],
      "stateMutability": "nonpayable",
      "type": "function"
    },
    {
      "inputs": [
        {
          "internalType": "address",
          "name": "_engineAddress",
          "type": "address"
        }
      ],
      "name": "setLiquidationEngine",
      "outputs": [],
      "stateMutability": "nonpayable",
      "type": "function"
    },
    {
      "inputs": [
        {
          "internalType": "uint256",
          "name": "_ltv",
          "type": "uint256"
        },
        {
          "internalType": "uint256",
          "name": "_thresh",
          "type": "uint256"
        },
        {
          "internalType": "uint256",
          "name": "_rate",
          "type": "uint256"
        }
      ],
      "name": "setRiskParameters",
      "outputs": [],
      "stateMutability": "nonpayable",
      "type": "function"
    },
    {
      "inputs": [],
      "name": "ticketNFT",
      "outputs": [
        {
          "internalType": "contract ITicketNFT",
          "name": "",
          "type": "address"
        }
      ],
      "stateMutability": "view",
      "type": "function"
    },
    {
      "inputs": [],
      "name": "usdc",
      "outputs": [
        {
          "internalType": "contract IUSDC",
          "name": "",
          "type": "address"
        }
      ],
      "stateMutability": "view",
      "type": "function"
    },
    {
      "inputs": [
        {
          "internalType": "address",
          "name": "",
          "type": "address"
        }
      ],
      "name": "userDebt",
      "outputs": [
        {
          "internalType": "uint256",
          "name": "",
          "type": "uint256"
        }
      ],
      "stateMutability": "view",
      "type": "function"
    },
    {
      "inputs": [
        {
          "internalType": "uint256",
          "name": "tokenId",
          "type": "uint256"
        }
      ],
      "name": "withdrawCollateral",
      "outputs": [],
      "stateMutability": "nonpayable",
      "type": "function"
    },
    {
      "inputs": [
        {
          "internalType": "uint256",
          "name": "amount",
          "type": "uint256"
        }
      ],
      "name": "withdrawPoolFunds",
      "outputs": [],
      "stateMutability": "nonpayable",
      "type": "function"
    }
  ],
  "bytecode": "0x6101006040523480156200001257600080fd5b50604051620023d6380380620023d6833981016040819052620000359162000079565b60016000556001600160a01b0392831660805290821660a0521660c0523360e052620000c3565b80516001600160a01b03811681146200007457600080fd5b919050565b6000806000606084860312156200008f57600080fd5b6200009a846200005c565b9250620000aa602085016200005c565b9150620000ba604085016200005c565b90509250925092565b60805160a05160c05160e05161223f62000197600039600081816102c1015281816107eb01528181610a4c01528181610c29015261182d0152600081816102910152818161095e01528181610aa101528181610b85015281816115bd015281816116df0152818161188401526119c201526000818161017d01528181610f13015281816111d40152611d5a015260008181610317015281816105de0152818161066601528181610e0f01528181610e8f01528181610fff015281816110e50152818161135701526113de015261223f6000f3fe608060405234801561001057600080fd5b50600436106101735760003560e01c80636112fe2e116100de578063c5ebeaec11610097578063e883bca211610071578063e883bca2146103bb578063fa3ae6dc146103ce578063fade3496146103d6578063fe6bcd7c146103f657600080fd5b8063c5ebeaec14610375578063d7eda6f914610388578063da3a5f72146103a857600080fd5b80636112fe2e146102f65780637c3a00fd14610309578063b393391b14610312578063b497904114610339578063b69e5c7714610342578063bad4a01f1461036257600080fd5b8063371fd8e611610130578063371fd8e6146102665780633d70ddb0146102795780633e413bee1461028c5780634031234c146102b35780634c43d284146102bc5780634d298abd146102e357600080fd5b8063139ab0e714610178578063150b7a02146101bc5780631d5f143e146101f45780631ea6cabc14610209578063200549ca1461022a57806329b3915814610253575b600080fd5b61019f7f000000000000000000000000000000000000000000000000000000000000000081565b6040516001600160a01b0390911681526020015b60405180910390f35b6101db6101ca366004611e6e565b630a85bd0160e11b95945050505050565b6040516001600160e01b031990911681526020016101b3565b610207610202366004611f0d565b610409565b005b61021c610217366004611f46565b610737565b6040519081526020016101b3565b61019f610238366004611f6a565b6006602052600090815260409020546001600160a01b031681565b610207610261366004611f83565b6107e0565b61021c610274366004611f6a565b61087d565b610207610287366004611f6a565b610a41565b61019f7f000000000000000000000000000000000000000000000000000000000000000081565b61021c60035481565b61019f7f000000000000000000000000000000000000000000000000000000000000000081565b6102076102f1366004611f46565b610c1e565b610207610304366004611f6a565b610cb0565b61021c60045481565b61019f7f000000000000000000000000000000000000000000000000000000000000000081565b61021c60025481565b61021c610350366004611f46565b60076020526000908152604090205481565b610207610370366004611f6a565b610fde565b610207610383366004611f6a565b61148e565b61039b610396366004611f46565b6117b6565b6040516101b39190611faf565b6102076103b6366004611f6a565b611822565b60015461019f906001600160a01b031681565b61021c611923565b61021c6103e4366004611f46565b60086020526000908152604090205481565b61021c610404366004611f46565b611aa8565b6001546001600160a01b031633146104785760405162461bcd60e51b815260206004820152602760248201527f4c656e64696e67506f6f6c3a204e6f7420746865206c69717569646174696f6e60448201526620656e67696e6560c81b60648201526084015b60405180910390fd5b6001600160a01b0382166000908152600560209081526040808320805482518185028101850190935280835291929091908301828280156104d857602002820191906000526020600020905b8154815260200190600101908083116104c4575b50505050509050600081511161053c5760405162461bcd60e51b815260206004820152602360248201527f4c656e64696e67506f6f6c3a204e6f20636f6c6c61746572616c20746f207365604482015262697a6560e81b606482015260840161046f565b6001600160a01b038316600090815260056020526040812061055d91611e27565b6001600160a01b0383166000908152600760209081526040808320839055600890915281208190555b81518110156106e65760008282815181106105a3576105a3611ff3565b6020908102919091018101516000818152600690925260409182902080546001600160a01b03191690559051632142170760e11b81529091507f00000000000000000000000000000000000000000000000000000000000000006001600160a01b0316906342842e0e9061061f90309088908690600401612009565b600060405180830381600087803b15801561063957600080fd5b505af115801561064d573d6000803e3d6000fd5b5050604051636f81582b60e01b81526001600160a01b037f0000000000000000000000000000000000000000000000000000000000000000169250636f81582b91506106a0908490600090600401612043565b600060405180830381600087803b1580156106ba57600080fd5b505af11580156106ce573d6000803e3d6000fd5b505050505080806106de9061208b565b915050610586565b50816001600160a01b0316836001600160a01b03167f2661dc7554291b21221a68635b8b767f92d2f2f16666c5ec8fc3a8c968a039528360405161072a9190611faf565b60405180910390a3505050565b6001600160a01b0381166000908152600760205260408120548082036107605750600092915050565b6001600160a01b038316600090815260086020526040902054428103610787575092915050565b600061079382426120a4565b905060006107a76127106301e133806120bd565b82600454866107b691906120bd565b6107c091906120bd565b6107ca91906120d4565b90506107d681856120f6565b9695505050505050565b336001600160a01b037f000000000000000000000000000000000000000000000000000000000000000016146108285760405162461bcd60e51b815260040161046f90612109565b60028390556003829055600481905560408051848152602081018490529081018290527fca49799fec639051ee77a7ef822992984f069ae6a4d7da4106c5a59b6a6e4cae9060600160405180910390a1505050565b6000610887611b1a565b61089033611b44565b33600090815260076020526040902054806108ed5760405162461bcd60e51b815260206004820152601d60248201527f4c656e64696e67506f6f6c3a204e6f206465627420746f207265706179000000604482015260640161046f565b82818111156108f95750805b33600090815260076020526040812080548392906109189084906120a4565b909155505033600090815260076020526040812054900361094457336000908152600860205260408120555b6040516323b872dd60e01b81526000906001600160a01b037f000000000000000000000000000000000000000000000000000000000000000016906323b872dd9061099790339030908790600401612009565b6020604051808303816000875af11580156109b6573d6000803e3d6000fd5b505050506040513d601f19601f820116820180604052508101906109da9190612139565b9050806109f95760405162461bcd60e51b815260040161046f9061215b565b60405182815233907f0516911bcc3a0a7412a44601057c0a0a1ec628bde049a84284bc4288665344889060200160405180910390a250915050610a3c6001600055565b919050565b336001600160a01b037f00000000000000000000000000000000000000000000000000000000000000001614610a895760405162461bcd60e51b815260040161046f90612109565b6040516370a0823160e01b81523060048201526000907f00000000000000000000000000000000000000000000000000000000000000006001600160a01b0316906370a0823190602401602060405180830381865afa158015610af0573d6000803e3d6000fd5b505050506040513d601f19601f82011682018060405250810190610b14919061219c565b905081811015610b665760405162461bcd60e51b815260206004820152601f60248201527f4c656e64696e67506f6f6c3a20496e73756666696369656e742066756e647300604482015260640161046f565b60405163a9059cbb60e01b8152336004820152602481018390526000907f00000000000000000000000000000000000000000000000000000000000000006001600160a01b03169063a9059cbb906044016020604051808303816000875af1158015610bd6573d6000803e3d6000fd5b505050506040513d601f19601f82011682018060405250810190610bfa9190612139565b905080610c195760405162461bcd60e51b815260040161046f9061215b565b505050565b336001600160a01b037f00000000000000000000000000000000000000000000000000000000000000001614610c665760405162461bcd60e51b815260040161046f90612109565b600180546001600160a01b0319166001600160a01b0383169081179091556040517f3b0968e13fd8c056155795f1e4e6e6ecfe1a011135caa8bb22b7f850a0d5265c90600090a250565b610cb8611b1a565b6000818152600660205260409020546001600160a01b03163314610d285760405162461bcd60e51b815260206004820152602160248201527f4c656e64696e67506f6f6c3a204e6f7420636f6c6c61746572616c206f776e656044820152603960f91b606482015260840161046f565b610d3133611b44565b3360008181526007602052604090205490610d4c9083611c0e565b600082815260066020526040812080546001600160a01b0319169055610d7133611ce3565b90506000606460025483610d8591906120bd565b610d8f91906120d4565b905080831115610df85760405162461bcd60e51b815260206004820152602e60248201527f4c656e64696e67506f6f6c3a20496e73756666696369656e742072656d61696e60448201526d1a5b99c818dbdb1b185d195c985b60921b606482015260840161046f565b604051632142170760e11b81526001600160a01b037f000000000000000000000000000000000000000000000000000000000000000016906342842e0e90610e4890309033908990600401612009565b600060405180830381600087803b158015610e6257600080fd5b505af1158015610e76573d6000803e3d6000fd5b5050604051636f81582b60e01b81526001600160a01b037f0000000000000000000000000000000000000000000000000000000000000000169250636f81582b9150610ec9908790600090600401612043565b600060405180830381600087803b158015610ee357600080fd5b505af1158015610ef7573d6000803e3d6000fd5b5050604051630e75722360e41b815260048101879052600092507f00000000000000000000000000000000000000000000000000000000000000006001600160a01b0316915063e757223090602401602060405180830381865afa158015610f63573d6000803e3d6000fd5b505050506040513d601f19601f82011682018060405250810190610f87919061219c565b905084336001600160a01b03167fdaed309a628faec6cab72194019e2a1a34e890ca9bf9be99788992dd5469281983604051610fc591815260200190565b60405180910390a350505050610fdb6001600055565b50565b610fe6611b1a565b6040516331a9108f60e11b8152600481018290526000907f00000000000000000000000000000000000000000000000000000000000000006001600160a01b031690636352211e90602401602060405180830381865afa15801561104e573d6000803e3d6000fd5b505050506040513d601f19601f8201168201806040525081019061107291906121b5565b90506001600160a01b03811633146110cc5760405162461bcd60e51b815260206004820181905260248201527f4c656e64696e67506f6f6c3a204e6f742074686520746f6b656e206f776e6572604482015260640161046f565b60405163f45fd0f360e01b8152600481018390526000907f00000000000000000000000000000000000000000000000000000000000000006001600160a01b03169063f45fd0f390602401602060405180830381865afa158015611134573d6000803e3d6000fd5b505050506040513d601f19601f8201168201806040525081019061115891906121d2565b9050600081600381111561116e5761116e61202d565b146111bb5760405162461bcd60e51b815260206004820152601e60248201527f4c656e64696e67506f6f6c3a20546f6b656e206973206e6f742049444c450000604482015260640161046f565b604051630e75722360e41b8152600481018490526000907f00000000000000000000000000000000000000000000000000000000000000006001600160a01b03169063e757223090602401602060405180830381865afa158015611223573d6000803e3d6000fd5b505050506040513d601f19601f82011682018060405250810190611247919061219c565b9050600081116112995760405162461bcd60e51b815260206004820152601f60248201527f4c656e64696e67506f6f6c3a20546f6b656e20686173206e6f20707269636500604482015260640161046f565b6000848152600660205260409020546001600160a01b03161561130a5760405162461bcd60e51b8152602060048201526024808201527f4c656e64696e67506f6f6c3a20546f6b656e20616c7265616479206465706f736044820152631a5d195960e21b606482015260840161046f565b33600081815260056020908152604080832080546001810182559084528284200188905587835260069091529081902080546001600160a01b0319168317905551632142170760e11b81527f00000000000000000000000000000000000000000000000000000000000000006001600160a01b0316916342842e0e91611397919030908990600401612009565b600060405180830381600087803b1580156113b157600080fd5b505af11580156113c5573d6000803e3d6000fd5b5050604051636f81582b60e01b81526001600160a01b037f0000000000000000000000000000000000000000000000000000000000000000169250636f81582b9150611418908790600290600401612043565b600060405180830381600087803b15801561143257600080fd5b505af1158015611446573d6000803e3d6000fd5b50506040518381528692503391507ff4d587c98d234ca4d147061e6b5167e7f41ee17f11562a9f0b49570abece859e9060200160405180910390a3505050610fdb6001600055565b611496611b1a565b61149f33611b44565b60006114aa33611ce3565b9050600081116115085760405162461bcd60e51b8152602060048201526024808201527f4c656e64696e67506f6f6c3a204e6f20636f6c6c61746572616c206465706f736044820152631a5d195960e21b606482015260840161046f565b600060646002548361151a91906120bd565b61152491906120d4565b33600090815260076020526040812054919250906115439085906120f6565b9050818111156115a65760405162461bcd60e51b815260206004820152602860248201527f4c656e64696e67506f6f6c3a20416d6f756e74206578636565647320626f72726044820152671bddc81b1a5b5a5d60c21b606482015260840161046f565b6040516370a0823160e01b815230600482015284907f00000000000000000000000000000000000000000000000000000000000000006001600160a01b0316906370a0823190602401602060405180830381865afa15801561160c573d6000803e3d6000fd5b505050506040513d601f19601f82011682018060405250810190611630919061219c565b101561168a5760405162461bcd60e51b815260206004820152602360248201527f4c656e64696e67506f6f6c3a20496e73756666696369656e74206c697175696460448201526269747960e81b606482015260840161046f565b336000908152600760209081526040808320849055600890915281205490036116c0573360009081526008602052604090204290555b60405163a9059cbb60e01b8152336004820152602481018590526000907f00000000000000000000000000000000000000000000000000000000000000006001600160a01b03169063a9059cbb906044016020604051808303816000875af1158015611730573d6000803e3d6000fd5b505050506040513d601f19601f820116820180604052508101906117549190612139565b9050806117735760405162461bcd60e51b815260040161046f9061215b565b60405185815233907fac59582e5396aca512fa873a2047e7f4c80f8f55d4a06cb34a78a0187f62719f9060200160405180910390a250505050610fdb6001600055565b6001600160a01b03811660009081526005602090815260409182902080548351818402810184019094528084526060939283018282801561181657602002820191906000526020600020905b815481526020019060010190808311611802575b50505050509050919050565b336001600160a01b037f0000000000000000000000000000000000000000000000000000000000000000161461186a5760405162461bcd60e51b815260040161046f90612109565b6040516323b872dd60e01b81526000906001600160a01b037f000000000000000000000000000000000000000000000000000000000000000016906323b872dd906118bd90339030908790600401612009565b6020604051808303816000875af11580156118dc573d6000803e3d6000fd5b505050506040513d601f19601f820116820180604052508101906119009190612139565b90508061191f5760405162461bcd60e51b815260040161046f9061215b565b5050565b600061192d611b1a565b61193633611b44565b33600090815260076020526040902054806119935760405162461bcd60e51b815260206004820152601d60248201527f4c656e64696e67506f6f6c3a204e6f206465627420746f207265706179000000604482015260640161046f565b3360008181526007602090815260408083208390556008909152808220829055516323b872dd60e01b815290917f00000000000000000000000000000000000000000000000000000000000000006001600160a01b0316916323b872dd91611a019130908790600401612009565b6020604051808303816000875af1158015611a20573d6000803e3d6000fd5b505050506040513d601f19601f82011682018060405250810190611a449190612139565b905080611a635760405162461bcd60e51b815260040161046f9061215b565b60405182815233907f0516911bcc3a0a7412a44601057c0a0a1ec628bde049a84284bc4288665344889060200160405180910390a2509050611aa56001600055565b90565b600080611ab483611ce3565b90506000611ac184610737565b905080600003611ad657506000199392505050565b6000606460035484611ae891906120bd565b611af291906120d4565b905081611b07670de0b6b3a7640000836120bd565b611b1191906120d4565b95945050505050565b600260005403611b3d57604051633ee5aeb560e01b815260040160405180910390fd5b6002600055565b6001600160a01b03811660009081526007602052604081205490819003611b69575050565b6001600160a01b038216600090815260086020526040902054428103611b8e57505050565b6000611b9a82426120a4565b90506000611bae6127106301e133806120bd565b8260045486611bbd91906120bd565b611bc791906120bd565b611bd191906120d4565b9050611bdd81856120f6565b6001600160a01b03909516600090815260076020908152604080832097909755600890529490942042905550505050565b6001600160a01b0382166000908152600560205260408120905b8154811015611cdd5782828281548110611c4457611c44611ff3565b906000526020600020015403611ccb5781548290611c64906001906120a4565b81548110611c7457611c74611ff3565b9060005260206000200154828281548110611c9157611c91611ff3565b906000526020600020018190555081805480611caf57611caf6121f3565b6001900381819060005260206000200160009055905550505050565b80611cd58161208b565b915050611c28565b50505050565b6001600160a01b0381166000908152600560209081526040808320805482518185028101850190935280835284938493929190830182828015611d4557602002820191906000526020600020905b815481526020019060010190808311611d31575b5050505050905060005b8151811015611e1e577f00000000000000000000000000000000000000000000000000000000000000006001600160a01b031663e7572230838381518110611d9957611d99611ff3565b60200260200101516040518263ffffffff1660e01b8152600401611dbf91815260200190565b602060405180830381865afa158015611ddc573d6000803e3d6000fd5b505050506040513d601f19601f82011682018060405250810190611e00919061219c565b611e0a90846120f6565b925080611e168161208b565b915050611d4f565b50909392505050565b5080546000825590600052602060002090810190610fdb91905b80821115611e555760008155600101611e41565b5090565b6001600160a01b0381168114610fdb57600080fd5b600080600080600060808688031215611e8657600080fd5b8535611e9181611e59565b94506020860135611ea181611e59565b935060408601359250606086013567ffffffffffffffff80821115611ec557600080fd5b818801915088601f830112611ed957600080fd5b813581811115611ee857600080fd5b896020828501011115611efa57600080fd5b9699959850939650602001949392505050565b60008060408385031215611f2057600080fd5b8235611f2b81611e59565b91506020830135611f3b81611e59565b809150509250929050565b600060208284031215611f5857600080fd5b8135611f6381611e59565b9392505050565b600060208284031215611f7c57600080fd5b5035919050565b600080600060608486031215611f9857600080fd5b505081359360208301359350604090920135919050565b6020808252825182820181905260009190848201906040850190845b81811015611fe757835183529284019291840191600101611fcb565b50909695505050505050565b634e487b7160e01b600052603260045260246000fd5b6001600160a01b039384168152919092166020820152604081019190915260600190565b634e487b7160e01b600052602160045260246000fd5b828152604081016004831061206857634e487b7160e01b600052602160045260246000fd5b8260208301529392505050565b634e487b7160e01b600052601160045260246000fd5b60006001820161209d5761209d612075565b5060010190565b818103818111156120b7576120b7612075565b92915050565b80820281158282048414176120b7576120b7612075565b6000826120f157634e487b7160e01b600052601260045260246000fd5b500490565b808201808211156120b7576120b7612075565b6020808252601690820152752632b73234b733a837b7b61d102737ba1030b236b4b760511b604082015260600190565b60006020828403121561214b57600080fd5b81518015158114611f6357600080fd5b60208082526021908201527f4c656e64696e67506f6f6c3a2055534443207472616e73666572206661696c656040820152601960fa1b606082015260800190565b6000602082840312156121ae57600080fd5b5051919050565b6000602082840312156121c757600080fd5b8151611f6381611e59565b6000602082840312156121e457600080fd5b815160048110611f6357600080fd5b634e487b7160e01b600052603160045260246000fdfea2646970667358221220dd10924d82ee7d1a9518644238b88fe73da24d676957c6aaaa9f5866490f8c3964736f6c63430008140033",
  "linkReferences": {},
  "deployedLinkReferences": {}
}