{
  "_format": "hh-sol-artifact-1",
  "contractName": "LiquidationEngine",
  "sourceName": "contracts/LiquidationEngine.sol",
  "abi": [
    {
      "inputs": [
        {
          "internalType": "address",
          "name": "_lendingPoolAddress",
          "type": "address"
        },
        {
          "internalType": "address",
          "name": "_usdcAddress",
          "type": "address"
        }
      ],
      "stateMutability": "nonpayable",
      "type": "constructor"
    },
    {
      "inputs": [],
      "name": "ReentrancyGuardReentrantCall",
      "type": "error"
    },
    {
      "anonymous": false,
      "inputs": [
        {
          "indexed": true,
          "internalType": "address",
          "name": "liquidator",
          "type": "address"
        },
        {
          "indexed": true,
          "internalType": "address",
          "name": "user",
          "type": "address"
        },
        {
          "indexed": false,
          "internalType": "uint256",
          "name": "debtPaid",
          "type": "uint256"
        }
      ],
      "name": "LiquidationExecuted",
      "type": "event"
    },
    {
      "inputs": [],
      "name": "lendingPool",
      "outputs": [
        {
          "internalType": "contract ILendingPool",
          "name": "",
          "type": "address"
        }
      ],
      "stateMutability": "view",
      "type": "function"
    },
    {
      "inputs": [
        {
          "internalType": "address",
          "name": "user",
          "type": "address"
        }
      ],
      "name": "liquidate",
      "outputs": [],
      "stateMutability": "nonpayable",
      "type": "function"
    },
    {
      "inputs": [],
      "name": "usdc",
      "outputs": [
        {
          "internalType": "contract IUSDC",
          "name": "",
          "type": "address"
        }
      ],
      "stateMutability": "view",
      "type": "function"
    }
  ],
  "bytecode": "0x60c060405234801561001057600080fd5b5060405161064738038061064783398101604081905261002f91610067565b60016000556001600160a01b039182166080521660a05261009a565b80516001600160a01b038116811461006257600080fd5b919050565b6000806040838503121561007a57600080fd5b6100838361004b565b91506100916020840161004b565b90509250929050565b60805160a0516105686100df60003960008181606001526102ff01526000818160a30152818160ef015281816101e7015281816102cd01526103f101526105686000f3fe608060405234801561001057600080fd5b50600436106100415760003560e01c80632f865568146100465780633e413bee1461005b578063a59a99731461009e575b600080fd5b6100596100543660046104c7565b6100c5565b005b6100827f000000000000000000000000000000000000000000000000000000000000000081565b6040516001600160a01b03909116815260200160405180910390f35b6100827f000000000000000000000000000000000000000000000000000000000000000081565b6100cd61049d565b604051633f9af35f60e21b81526001600160a01b0382811660048301526000917f00000000000000000000000000000000000000000000000000000000000000009091169063fe6bcd7c90602401602060405180830381865afa158015610138573d6000803e3d6000fd5b505050506040513d601f19601f8201168201806040525081019061015c91906104f7565b9050670de0b6b3a764000081106101c55760405162461bcd60e51b815260206004820152602260248201527f4c69717569646174696f6e456e67696e653a204c6f616e206973206865616c74604482015261687960f01b60648201526084015b60405180910390fd5b6040516307a9b2af60e21b81526001600160a01b0383811660048301526000917f000000000000000000000000000000000000000000000000000000000000000090911690631ea6cabc90602401602060405180830381865afa158015610230573d6000803e3d6000fd5b505050506040513d601f19601f8201168201806040525081019061025491906104f7565b9050600081116102b05760405162461bcd60e51b815260206004820152602160248201527f4c69717569646174696f6e456e67696e653a204e6f206465627420746f2070616044820152607960f81b60648201526084016101bc565b6040516323b872dd60e01b81523360048201526001600160a01b037f000000000000000000000000000000000000000000000000000000000000000081166024830152604482018390526000917f0000000000000000000000000000000000000000000000000000000000000000909116906323b872dd906064016020604051808303816000875af115801561034a573d6000803e3d6000fd5b505050506040513d601f19601f8201168201806040525081019061036e9190610510565b9050806103cc5760405162461bcd60e51b815260206004820152602660248201527f4c69717569646174696f6e456e67696e653a2044656274207061796d656e742060448201526519985a5b195960d21b60648201526084016101bc565b604051630eaf8a1f60e11b81526001600160a01b0385811660048301523360248301527f00000000000000000000000000000000000000000000000000000000000000001690631d5f143e90604401600060405180830381600087803b15801561043557600080fd5b505af1158015610449573d6000803e3d6000fd5b50506040518481526001600160a01b03871692503391507f1175522017e08c2f400d7e516608eff60816ee9e8319158d174321234b6026319060200160405180910390a350505061049a6001600055565b50565b6002600054036104c057604051633ee5aeb560e01b815260040160405180910390fd5b6002600055565b6000602082840312156104d957600080fd5b81356001600160a01b03811681146104f057600080fd5b9392505050565b60006020828403121561050957600080fd5b5051919050565b60006020828403121561052257600080fd5b815180151581146104f057600080fdfea2646970667358221220932d840c4c120d4f7c21cf19e3a2544ede03e308d776ba6681fa533e8148fc3464736f6c63430008140033",
  "linkReferences": {},
  "deployedLinkReferences": {}
}