{
  "_format": "hh-sol-artifact-1",
  "contractName": "PricingOracle",
  "sourceName": "contracts/PricingOracle.sol",
  "abi": [
    {
      "inputs": [
        {
          "internalType": "address",
          "name": "_router",
          "type": "address"
        },
        {
          "internalType": "bytes32",
          "name": "_donId",
          "type": "bytes32"
        }
      ],
      "stateMutability": "nonpayable",
      "type": "constructor"
    },
    {
      "inputs": [],
      "name": "EmptyArgs",
      "type": "error"
    },
    {
      "inputs": [],
      "name": "EmptySource",
      "type": "error"
    },
    {
      "inputs": [],
      "name": "InvalidTokenId",
      "type": "error"
    },
    {
      "inputs": [],
      "name": "NoInlineSecrets",
      "type": "error"
    },
    {
      "inputs": [],
      "name": "OnlyRouterCanFulfill",
      "type": "error"
    },
    {
      "inputs": [],
      "name": "ReentrancyGuardReentrantCall",
      "type": "error"
    },
    {
      "inputs": [],
      "name": "ScriptNotSet",
      "type": "error"
    },
    {
      "inputs": [],
      "name": "SubscriptionNotSet",
      "type": "error"
    },
    {
      "inputs": [],
      "name": "Unauthorized",
      "type": "error"
    },
    {
      "anonymous": false,
      "inputs": [
        {
          "indexed": false,
          "internalType": "string",
          "name": "newScript",
          "type": "string"
        }
      ],
      "name": "FunctionsScriptUpdated",
      "type": "event"
    },
    {
      "anonymous": false,
      "inputs": [
        {
          "indexed": true,
          "internalType": "bytes32",
          "name": "requestId",
          "type": "bytes32"
        },
        {
          "indexed": false,
          "internalType": "bytes",
          "name": "error",
          "type": "bytes"
        }
      ],
      "name": "PriceRequestError",
      "type": "event"
    },
    {
      "anonymous": false,
      "inputs": [
        {
          "indexed": true,
          "internalType": "bytes32",
          "name": "requestId",
          "type": "bytes32"
        },
        {
          "indexed": true,
          "internalType": "uint256",
          "name": "tokenId",
          "type": "uint256"
        }
      ],
      "name": "PriceRequestSent",
      "type": "event"
    },
    {
      "anonymous": false,
      "inputs": [
        {
          "indexed": true,
          "internalType": "uint256",
          "name": "tokenId",
          "type": "uint256"
        },
        {
          "indexed": false,
          "internalType": "uint256",
          "name": "newPrice",
          "type": "uint256"
        }
      ],
      "name": "PriceUpdated",
      "type": "event"
    },
    {
      "anonymous": false,
      "inputs": [
        {
          "indexed": true,
          "internalType": "bytes32",
          "name": "id",
          "type": "bytes32"
        }
      ],
      "name": "RequestFulfilled",
      "type": "event"
    },
    {
      "anonymous": false,
      "inputs": [
        {
          "indexed": true,
          "internalType": "bytes32",
          "name": "id",
          "type": "bytes32"
        }
      ],
      "name": "RequestSent",
      "type": "event"
    },
    {
      "anonymous": false,
      "inputs": [
        {
          "indexed": false,
          "internalType": "uint64",
          "name": "newSubId",
          "type": "uint64"
        }
      ],
      "name": "SubscriptionIdUpdated",
      "type": "event"
    },
    {
      "inputs": [],
      "name": "CALLBACK_GAS_LIMIT",
      "outputs": [
        {
          "internalType": "uint32",
          "name": "",
          "type": "uint32"
        }
      ],
      "stateMutability": "view",
      "type": "function"
    },
    {
      "inputs": [
        {
          "internalType": "bytes32",
          "name": "",
          "type": "bytes32"
        }
      ],
      "name": "activeRequests",
      "outputs": [
        {
          "internalType": "uint256",
          "name": "",
          "type": "uint256"
        }
      ],
      "stateMutability": "view",
      "type": "function"
    },
    {
      "inputs": [],
      "name": "admin",
      "outputs": [
        {
          "internalType": "address",
          "name": "",
          "type": "address"
        }
      ],
      "stateMutability": "view",
      "type": "function"
    },
    {
      "inputs": [],
      "name": "chainlinkRouter",
      "outputs": [
        {
          "internalType": "address",
          "name": "",
          "type": "address"
        }
      ],
      "stateMutability": "view",
      "type": "function"
    },
    {
      "inputs": [],
      "name": "donId",
      "outputs": [
        {
          "internalType": "bytes32",
          "name": "",
          "type": "bytes32"
        }
      ],
      "stateMutability": "view",
      "type": "function"
    },
    {
      "inputs": [
        {
          "internalType": "uint256",
          "name": "tokenId",
          "type": "uint256"
        }
      ],
      "name": "getPrice",
      "outputs": [
        {
          "internalType": "uint256",
          "name": "",
          "type": "uint256"
        }
      ],
      "stateMutability": "view",
      "type": "function"
    },
    {
      "inputs": [
        {
          "internalType": "bytes32",
          "name": "requestId",
          "type": "bytes32"
        },
        {
          "internalType": "bytes",
          "name": "response",
          "type": "bytes"
        },
        {
          "internalType": "bytes",
          "name": "err",
          "type": "bytes"
        }
      ],
      "name": "handleOracleFulfillment",
      "outputs": [],
      "stateMutability": "nonpayable",
      "type": "function"
    },
    {
      "inputs": [
        {
          "internalType": "bytes32",
          "name": "requestId",
          "type": "bytes32"
        }
      ],
      "name": "isRequestPending",
      "outputs": [
        {
          "internalType": "bool",
          "name": "",
          "type": "bool"
        }
      ],
      "stateMutability": "view",
      "type": "function"
    },
    {
      "inputs": [],
      "name": "jsSourceCode",
      "outputs": [
        {
          "internalType": "string",
          "name": "",
          "type": "string"
        }
      ],
      "stateMutability": "view",
      "type": "function"
    },
    {
      "inputs": [
        {
          "internalType": "uint256",
          "name": "tokenId",
          "type": "uint256"
        }
      ],
      "name": "requestPriceUpdate",
      "outputs": [],
      "stateMutability": "nonpayable",
      "type": "function"
    },
    {
      "inputs": [
        {
          "internalType": "bytes32",
          "name": "_donId",
          "type": "bytes32"
        }
      ],
      "name": "setDonId",
      "outputs": [],
      "stateMutability": "nonpayable",
      "type": "function"
    },
    {
      "inputs": [
        {
          "internalType": "string",
          "name": "_jsSourceCode",
          "type": "string"
        }
      ],
      "name": "setFunctionsScript",
      "outputs": [],
      "stateMutability": "nonpayable",
      "type": "function"
    },
    {
      "inputs": [
        {
          "internalType": "uint64",
          "name": "_subscriptionId",
          "type": "uint64"
        }
      ],
      "name": "setSubscriptionId",
      "outputs": [],
      "stateMutability": "nonpayable",
      "type": "function"
    },
    {
      "inputs": [],
      "name": "subscriptionId",
      "outputs": [
        {
          "internalType": "uint64",
          "name": "",
          "type": "uint64"
        }
      ],
      "stateMutability": "view",
      "type": "function"
    }
  ],
  "bytecode": "0x60e060405234801561001057600080fd5b5060405161195238038061195283398101604081905261002f91610053565b60016000556001600160a01b03909116608081905260a0526003553360c05261008d565b6000806040838503121561006657600080fd5b82516001600160a01b038116811461007d57600080fd5b6020939093015192949293505050565b60805160a05160c05161187a6100d860003960008181610281015281816103320152818161037f01526104a0015260006102420152600081816102ae0152610c7f015261187a6000f3fe608060405234801561001057600080fd5b50600436106100ea5760003560e01c8063ce3e45ea1161008c578063ea7b4f7711610066578063ea7b4f7714610217578063ee53e6a31461022a578063f82818401461023d578063f851a4401461027c57600080fd5b8063ce3e45ea146101b0578063d1e93d14146101c5578063e7572230146101f757600080fd5b806378ca5de7116100c857806378ca5de7146101535780638dbe7b9d146101665780639cde7ffc1461017d5780639d1c21e81461019d57600080fd5b806309c1ba2e146100ef5780630ca761751461011f57806333d608f114610134575b600080fd5b600554610102906001600160401b031681565b6040516001600160401b0390911681526020015b60405180910390f35b61013261012d366004611316565b6102a3565b005b61013e620493e081565b60405163ffffffff9091168152602001610116565b610132610161366004611382565b610327565b61016f60035481565b604051908152602001610116565b61016f61018b366004611382565b60026020526000908152604090205481565b6101326101ab36600461139b565b610374565b6101b8610407565b6040516101169190611452565b6101e76101d3366004611382565b600090815260026020526040902054151590565b6040519015158152602001610116565b61016f610205366004611382565b60009081526001602052604090205490565b610132610225366004611465565b610495565b610132610238366004611382565b610532565b6102647f000000000000000000000000000000000000000000000000000000000000000081565b6040516001600160a01b039091168152602001610116565b6102647f000000000000000000000000000000000000000000000000000000000000000081565b336001600160a01b037f000000000000000000000000000000000000000000000000000000000000000016146102ec5760405163c6829f8360e01b815260040160405180910390fd5b6102f7838383610749565b60405183907f85e1543bf2f84fe80c6badbce3648c8539ad1df4d2b3d822938ca0538be727e690600090a2505050565b336001600160a01b037f0000000000000000000000000000000000000000000000000000000000000000161461036f576040516282b42960e81b815260040160405180910390fd5b600355565b336001600160a01b037f000000000000000000000000000000000000000000000000000000000000000016146103bc576040516282b42960e81b815260040160405180910390fd5b60046103c9828483611516565b507fd47f110df7a3442c17b6b458499692615a6faafb29bdda2f82bd779204d46e8082826040516103fb9291906115d6565b60405180910390a15050565b600480546104149061148e565b80601f01602080910402602001604051908101604052809291908181526020018280546104409061148e565b801561048d5780601f106104625761010080835404028352916020019161048d565b820191906000526020600020905b81548152906001019060200180831161047057829003601f168201915b505050505081565b336001600160a01b037f000000000000000000000000000000000000000000000000000000000000000016146104dd576040516282b42960e81b815260040160405180910390fd5b6005805467ffffffffffffffff19166001600160401b0383169081179091556040519081527ffe1ef567ce884ef794b945e4334aba185ec62ce1f1d71ea9becb1a7d39d561d09060200160405180910390a150565b61053a610834565b6005546001600160401b0316600003610566576040516342c4719160e11b815260040160405180910390fd5b600480546105739061148e565b905060000361059557604051632a0548a560e21b815260040160405180910390fd5b6105d66040805160e0810190915280600081526020016000815260200160008152602001606081526020016060815260200160608152602001606081525090565b610673600480546105e69061148e565b80601f01602080910402602001604051908101604052809291908181526020018280546106129061148e565b801561065f5780601f106106345761010080835404028352916020019161065f565b820191906000526020600020905b81548152906001019060200180831161064257829003601f168201915b50505050508261085e90919063ffffffff16565b604080516001808252818301909252600091816020015b606081526020019060019003908161068a5790505090506106aa8361086f565b816000815181106106bd576106bd611605565b60209081029190910101526106d28282610978565b60006106fc6106e0846109a2565b6005546003546001600160401b0390911690620493e090610c7a565b60008181526002602052604080822087905551919250859183917f6117c8f48315bfdf0d6e9e6f35a966046f51e90f8685b6bcbfffd27eca60876191a35050506107466001600055565b50565b600083815260026020526040812054908190036107665750505050565b8151156107b957837fb24d5f15f5c25036913bad33ce1b2efe935f2c3072a763baa648948e3bc5c7298360405161079d9190611452565b60405180910390a2505050600090815260026020526040812055565b6000838060200190518101906107cf919061161b565b600083815260016020526040908190208290555190915082907f945c1c4e99aa89f648fbfe3df471b916f719e16d960fcec0737d4d56bd696838906108179084815260200190565b60405180910390a250505060009182525060026020526040812055565b60026000540361085757604051633ee5aeb560e01b815260040160405180910390fd5b6002600055565b61086b8260008084610d4c565b5050565b6060816000036108965750506040805180820190915260018152600360fc1b602082015290565b8160005b81156108c057806108aa8161164a565b91506108b99050600a83611679565b915061089a565b6000816001600160401b038111156108da576108da611274565b6040519080825280601f01601f191660200182016040528015610904576020820181803683370190505b5090505b841561097057816109188161168d565b92506109279050600a866116a4565b6109329060306116b8565b60f81b81838151811061094757610947611605565b60200101906001600160f81b031916908160001a905350610969600a86611679565b9450610908565b949350505050565b805160000361099a5760405163fe936cb760e01b815260040160405180910390fd5b60a090910152565b606060006109b1610100610dca565b90506109ea6040518060400160405280600c81526020016b31b7b232a637b1b0ba34b7b760a11b81525082610deb90919063ffffffff16565b8251610a08906002811115610a0157610a016116cb565b8290610e09565b6040805180820190915260088152676c616e677561676560c01b6020820152610a32908290610deb565b6040830151610a49908015610a0157610a016116cb565b604080518082019091526006815265736f7572636560d01b6020820152610a71908290610deb565b6060830151610a81908290610deb565b60a08301515115610b15576040805180820190915260048152636172677360e01b6020820152610ab2908290610deb565b610abb81610e42565b60005b8360a0015151811015610b0b57610afb8460a001518281518110610ae457610ae4611605565b602002602001015183610deb90919063ffffffff16565b610b048161164a565b9050610abe565b50610b1581610e66565b60808301515115610bd957600083602001516002811115610b3857610b386116cb565b03610b565760405163a80d31f760e01b815260040160405180910390fd5b60408051808201909152600f81526e39b2b1b932ba39a637b1b0ba34b7b760891b6020820152610b87908290610deb565b610ba083602001516002811115610a0157610a016116cb565b6040805180820190915260078152667365637265747360c81b6020820152610bc9908290610deb565b6080830151610bd9908290610e84565b60c08301515115610c725760408051808201909152600981526862797465734172677360b81b6020820152610c0f908290610deb565b610c1881610e42565b60005b8360c0015151811015610c6857610c588460c001518281518110610c4157610c41611605565b602002602001015183610e8490919063ffffffff16565b610c618161164a565b9050610c1b565b50610c7281610e66565b515192915050565b6000807f00000000000000000000000000000000000000000000000000000000000000006001600160a01b031663461d27628688600188886040518663ffffffff1660e01b8152600401610cd29594939291906116e1565b6020604051808303816000875af1158015610cf1573d6000803e3d6000fd5b505050506040513d601f19601f82011682018060405250810190610d15919061161b565b60405190915081907f1131472297a800fee664d1d89cfa8f7676ff07189ecc53f80bbb5f4969099db890600090a295945050505050565b8051600003610d6e576040516322ce3edd60e01b815260040160405180910390fd5b83836002811115610d8157610d816116cb565b90816002811115610d9457610d946116cb565b90525060408401828015610daa57610daa6116cb565b90818015610dba57610dba6116cb565b9052506060909301929092525050565b610dd261123f565b8051610dde9083610e91565b5060006020820152919050565b610df88260038351610f0b565b8151610e04908261102a565b505050565b8151610e169060c2611052565b5061086b8282604051602001610e2e91815260200190565b604051602081830303815290604052610e84565b610e4d8160046110bb565b600181602001818151610e6091906116b8565b90525050565b610e718160076110bb565b600181602001818151610e60919061172a565b610df88260028351610f0b565b604080518082019091526060815260006020820152610eb16020836116a4565b15610ed957610ec16020836116a4565b610ecc90602061172a565b610ed690836116b8565b91505b602080840183905260405180855260008152908184010181811015610efd57600080fd5b604052508290505b92915050565b6017816001600160401b031611610f37578251610f319060e0600585901b168317611052565b50505050565b60ff816001600160401b031611610f77578251610f5f906018611fe0600586901b1617611052565b508251610f31906001600160401b03831660016110d2565b61ffff816001600160401b031611610fb8578251610fa0906019611fe0600586901b1617611052565b508251610f31906001600160401b03831660026110d2565b63ffffffff816001600160401b031611610ffb578251610fe390601a611fe0600586901b1617611052565b508251610f31906001600160401b03831660046110d2565b825161101290601b611fe0600586901b1617611052565b508251610f31906001600160401b03831660086110d2565b60408051808201909152606081526000602082015261104b83838451611157565b9392505050565b60408051808201909152606081526000602082015282515160006110778260016116b8565b905084602001518210611098576110988561109383600261173d565b611228565b84516020838201018581535080518211156110b1578181525b5093949350505050565b8151610e0490601f611fe0600585901b1617611052565b60408051808201909152606081526000602082015283515160006110f682856116b8565b90508560200151811115611113576111138661109383600261173d565b6000600161112386610100611838565b61112d919061172a565b9050865182810187831982511617815250805183111561114b578281525b50959695505050505050565b604080518082019091526060815260006020820152825182111561117a57600080fd5b835151600061118984836116b8565b905085602001518111156111a6576111a68661109383600261173d565b8551805183820160200191600091808511156111c0578482525b505050602086015b6020861061120057805182526111df6020836116b8565b91506111ec6020826116b8565b90506111f960208761172a565b95506111c8565b51815160001960208890036101000a0190811690199190911617905250849150509392505050565b81516112348383610e91565b50610f31838261102a565b6040518060400160405280611267604051806040016040528060608152602001600081525090565b8152602001600081525090565b634e487b7160e01b600052604160045260246000fd5b600082601f83011261129b57600080fd5b81356001600160401b03808211156112b5576112b5611274565b604051601f8301601f19908116603f011681019082821181831017156112dd576112dd611274565b816040528381528660208588010111156112f657600080fd5b836020870160208301376000602085830101528094505050505092915050565b60008060006060848603121561132b57600080fd5b8335925060208401356001600160401b038082111561134957600080fd5b6113558783880161128a565b9350604086013591508082111561136b57600080fd5b506113788682870161128a565b9150509250925092565b60006020828403121561139457600080fd5b5035919050565b600080602083850312156113ae57600080fd5b82356001600160401b03808211156113c557600080fd5b818501915085601f8301126113d957600080fd5b8135818111156113e857600080fd5b8660208285010111156113fa57600080fd5b60209290920196919550909350505050565b6000815180845260005b8181101561143257602081850181015186830182015201611416565b506000602082860101526020601f19601f83011685010191505092915050565b60208152600061104b602083018461140c565b60006020828403121561147757600080fd5b81356001600160401b038116811461104b57600080fd5b600181811c908216806114a257607f821691505b6020821081036114c257634e487b7160e01b600052602260045260246000fd5b50919050565b601f821115610e0457600081815260208120601f850160051c810160208610156114ef5750805b601f850160051c820191505b8181101561150e578281556001016114fb565b505050505050565b6001600160401b0383111561152d5761152d611274565b6115418361153b835461148e565b836114c8565b6000601f841160018114611575576000851561155d5750838201355b600019600387901b1c1916600186901b1783556115cf565b600083815260209020601f19861690835b828110156115a65786850135825560209485019460019092019101611586565b50868210156115c35760001960f88860031b161c19848701351681555b505060018560011b0183555b5050505050565b60208152816020820152818360408301376000818301604090810191909152601f909201601f19160101919050565b634e487b7160e01b600052603260045260246000fd5b60006020828403121561162d57600080fd5b5051919050565b634e487b7160e01b600052601160045260246000fd5b60006001820161165c5761165c611634565b5060010190565b634e487b7160e01b600052601260045260246000fd5b60008261168857611688611663565b500490565b60008161169c5761169c611634565b506000190190565b6000826116b3576116b3611663565b500690565b80820180821115610f0557610f05611634565b634e487b7160e01b600052602160045260246000fd5b6001600160401b038616815260a06020820152600061170360a083018761140c565b61ffff9590951660408301525063ffffffff92909216606083015260809091015292915050565b81810381811115610f0557610f05611634565b8082028115828204841417610f0557610f05611634565b600181815b8085111561178f57816000190482111561177557611775611634565b8085161561178257918102915b93841c9390800290611759565b509250929050565b6000826117a657506001610f05565b816117b357506000610f05565b81600181146117c957600281146117d3576117ef565b6001915050610f05565b60ff8411156117e4576117e4611634565b50506001821b610f05565b5060208310610133831016604e8410600b8410161715611812575081810a610f05565b61181c8383611754565b806000190482111561183057611830611634565b029392505050565b600061104b838361179756fea2646970667358221220ac4067907547c481f87868c17b513239584e9271f81af569cf40d4558e62112564736f6c63430008140033",
  "linkReferences": {},
  "deployedLinkReferences": {}
}