{
  "_format": "hh-sol-artifact-1",
  "contractName": "StakingVault",
  "sourceName": "contracts/StakingVault.sol",
  "abi": [
    {
      "inputs": [
        {
          "internalType": "address",
          "name": "_ticketNFTAddress",
          "type": "address"
        },
        {
          "internalType": "address",
          "name": "_oracleAddress",
          "type": "address"
        }
      ],
      "stateMutability": "nonpayable",
      "type": "constructor"
    },
    {
      "inputs": [],
      "name": "ReentrancyGuardReentrantCall",
      "type": "error"
    },
    {
      "anonymous": false,
      "inputs": [
        {
          "indexed": true,
          "internalType": "address",
          "name": "user",
          "type": "address"
        },
        {
          "indexed": true,
          "internalType": "uint256",
          "name": "tokenId",
          "type": "uint256"
        },
        {
          "indexed": false,
          "internalType": "uint256",
          "name": "value",
          "type": "uint256"
        }
      ],
      "name": "TokenStaked",
      "type": "event"
    },
    {
      "anonymous": false,
      "inputs": [
        {
          "indexed": true,
          "internalType": "address",
          "name": "user",
          "type": "address"
        },
        {
          "indexed": true,
          "internalType": "uint256",
          "name": "tokenId",
          "type": "uint256"
        },
        {
          "indexed": false,
          "internalType": "uint256",
          "name": "value",
          "type": "uint256"
        }
      ],
      "name": "TokenUnstaked",
      "type": "event"
    },
    {
      "inputs": [
        {
          "internalType": "uint256",
          "name": "tokenId",
          "type": "uint256"
        }
      ],
      "name": "getStakeInfo",
      "outputs": [
        {
          "internalType": "address",
          "name": "owner",
          "type": "address"
        },
        {
          "internalType": "uint256",
          "name": "stakeTimestamp",
          "type": "uint256"
        },
        {
          "internalType": "uint256",
          "name": "initialValue",
          "type": "uint256"
        }
      ],
      "stateMutability": "view",
      "type": "function"
    },
    {
      "inputs": [
        {
          "internalType": "address",
          "name": "user",
          "type": "address"
        }
      ],
      "name": "getUserStakedValue",
      "outputs": [
        {
          "internalType": "uint256",
          "name": "",
          "type": "uint256"
        }
      ],
      "stateMutability": "view",
      "type": "function"
    },
    {
      "inputs": [
        {
          "internalType": "uint256",
          "name": "tokenId",
          "type": "uint256"
        }
      ],
      "name": "isStaked",
      "outputs": [
        {
          "internalType": "bool",
          "name": "",
          "type": "bool"
        }
      ],
      "stateMutability": "view",
      "type": "function"
    },
    {
      "inputs": [
        {
          "internalType": "address",
          "name": "operator",
          "type": "address"
        },
        {
          "internalType": "address",
          "name": "from",
          "type": "address"
        },
        {
          "internalType": "uint256",
          "name": "tokenId",
          "type": "uint256"
        },
        {
          "internalType": "bytes",
          "name": "data",
          "type": "bytes"
        }
      ],
      "name": "onERC721Received",
      "outputs": [
        {
          "internalType": "bytes4",
          "name": "",
          "type": "bytes4"
        }
      ],
      "stateMutability": "nonpayable",
      "type": "function"
    },
    {
      "inputs": [],
      "name": "pricingOracle",
      "outputs": [
        {
          "internalType": "contract IPricingOracle",
          "name": "",
          "type": "address"
        }
      ],
      "stateMutability": "view",
      "type": "function"
    },
    {
      "inputs": [
        {
          "internalType": "uint256",
          "name": "tokenId",
          "type": "uint256"
        }
      ],
      "name": "stake",
      "outputs": [],
      "stateMutability": "nonpayable",
      "type": "function"
    },
    {
      "inputs": [
        {
          "internalType": "uint256",
          "name": "",
          "type": "uint256"
        }
      ],
      "name": "stakeInfo",
      "outputs": [
        {
          "internalType": "address",
          "name": "owner",
          "type": "address"
        },
        {
          "internalType": "uint256",
          "name": "stakeTimestamp",
          "type": "uint256"
        },
        {
          "internalType": "uint256",
          "name": "initialValue",
          "type": "uint256"
        }
      ],
      "stateMutability": "view",
      "type": "function"
    },
    {
      "inputs": [],
      "name": "ticketNFT",
      "outputs": [
        {
          "internalType": "contract ITicketNFT",
          "name": "",
          "type": "address"
        }
      ],
      "stateMutability": "view",
      "type": "function"
    },
    {
      "inputs": [],
      "name": "totalStakedValue",
      "outputs": [
        {
          "internalType": "uint256",
          "name": "",
          "type": "uint256"
        }
      ],
      "stateMutability": "view",
      "type": "function"
    },
    {
      "inputs": [
        {
          "internalType": "uint256",
          "name": "tokenId",
          "type": "uint256"
        }
      ],
      "name": "unstake",
      "outputs": [],
      "stateMutability": "nonpayable",
      "type": "function"
    },
    {
      "inputs": [
        {
          "internalType": "address",
          "name": "",
          "type": "address"
        }
      ],
      "name": "userStakedValue",
      "outputs": [
        {
          "internalType": "uint256",
          "name": "",
          "type": "uint256"
        }
      ],
      "stateMutability": "view",
      "type": "function"
    }
  ],
  "bytecode": "0x60c060405234801561001057600080fd5b50604051610e23380380610e2383398101604081905261002f9161012e565b60016000556001600160a01b0382166100995760405162461bcd60e51b815260206004820152602160248201527f5374616b696e675661756c743a20496e76616c6964204e4654206164647265736044820152607360f81b60648201526084015b60405180910390fd5b6001600160a01b0381166100fb5760405162461bcd60e51b8152602060048201526024808201527f5374616b696e675661756c743a20496e76616c6964206f7261636c65206164646044820152637265737360e01b6064820152608401610090565b6001600160a01b039182166080521660a052610161565b80516001600160a01b038116811461012957600080fd5b919050565b6000806040838503121561014157600080fd5b61014a83610112565b915061015860208401610112565b90509250929050565b60805160a051610c6c6101b76000396000818161012f01526107730152600081816102680152818161043e015281816104c20152818161059f015281816106940152818161095701526109d60152610c6c6000f3fe608060405234801561001057600080fd5b50600436106100a95760003560e01c80634e533572116100715780634e533572146101ed5780636a006c40146102275780639bd18fb014610247578063a694fc3a14610250578063b393391b14610263578063baa51f861461028a57600080fd5b806309813482146100ae578063139ab0e71461012a578063150b7a02146101695780632e17de78146101a15780634de72f30146101b6575b600080fd5b6101006100bc366004610aaa565b600081815260016020818152604092839020835160608101855281546001600160a01b03168082529382015492810183905260029091015493018390529093909250565b604080516001600160a01b0390941684526020840192909252908201526060015b60405180910390f35b6101517f000000000000000000000000000000000000000000000000000000000000000081565b6040516001600160a01b039091168152602001610121565b610188610177366004610ad8565b630a85bd0160e11b95945050505050565b6040516001600160e01b03199091168152602001610121565b6101b46101af366004610aaa565b6102c5565b005b6101df6101c4366004610b77565b6001600160a01b031660009081526002602052604090205490565b604051908152602001610121565b6101006101fb366004610aaa565b60016020819052600091825260409091208054918101546002909101546001600160a01b039092169183565b6101df610235366004610b77565b60026020526000908152604090205481565b6101df60035481565b6101b461025e366004610aaa565b61057e565b6101517f000000000000000000000000000000000000000000000000000000000000000081565b6102b5610298366004610aaa565b6000908152600160205260409020546001600160a01b0316151590565b6040519015158152602001610121565b6102cd610a80565b600081815260016020818152604092839020835160608101855281546001600160a01b03168082529382015492810192909252600201549281019290925261035c5760405162461bcd60e51b815260206004820152601e60248201527f5374616b696e675661756c743a20546f6b656e206e6f74207374616b6564000060448201526064015b60405180910390fd5b80516001600160a01b031633146103b55760405162461bcd60e51b815260206004820152601c60248201527f5374616b696e675661756c743a204e6f7420796f7572207374616b65000000006044820152606401610353565b600082815260016020818152604080842080546001600160a01b0319168155928301849055600292830184905584810151338552929091528220805491929091610400908490610bb1565b909155505060408101516003805460009061041c908490610bb1565b9091555050604051636f81582b60e01b815260048101839052600060248201527f00000000000000000000000000000000000000000000000000000000000000006001600160a01b031690636f81582b90604401600060405180830381600087803b15801561048a57600080fd5b505af115801561049e573d6000803e3d6000fd5b5050604051632142170760e11b8152306004820152336024820152604481018590527f00000000000000000000000000000000000000000000000000000000000000006001600160a01b031692506342842e0e9150606401600060405180830381600087803b15801561051057600080fd5b505af1158015610524573d6000803e3d6000fd5b5050505081336001600160a01b03167f563fc70fca9d440d883299c76a721644d5aca7c45df98aeb5292c4cb823579bf836040015160405161056891815260200190565b60405180910390a35061057b6001600055565b50565b610586610a80565b6040516331a9108f60e11b8152600481018290526000907f00000000000000000000000000000000000000000000000000000000000000006001600160a01b031690636352211e90602401602060405180830381865afa1580156105ee573d6000803e3d6000fd5b505050506040513d601f19601f820116820180604052508101906106129190610bca565b90506001600160a01b038116331461067b5760405162461bcd60e51b815260206004820152602660248201527f5374616b696e675661756c743a20596f7520646f6e2774206f776e2074686973604482015265103a37b5b2b760d11b6064820152608401610353565b60405163f45fd0f360e01b8152600481018390526000907f00000000000000000000000000000000000000000000000000000000000000006001600160a01b03169063f45fd0f390602401602060405180830381865afa1580156106e3573d6000803e3d6000fd5b505050506040513d601f19601f820116820180604052508101906107079190610be7565b905060ff81161561075a5760405162461bcd60e51b815260206004820152601f60248201527f5374616b696e675661756c743a20546f6b656e206973206e6f742049444c45006044820152606401610353565b604051630e75722360e41b8152600481018490526000907f00000000000000000000000000000000000000000000000000000000000000006001600160a01b03169063e757223090602401602060405180830381865afa1580156107c2573d6000803e3d6000fd5b505050506040513d601f19601f820116820180604052508101906107e69190610c0a565b9050600081116108385760405162461bcd60e51b815260206004820181905260248201527f5374616b696e675661756c743a20546f6b656e20686173206e6f2070726963656044820152606401610353565b6000848152600160205260409020546001600160a01b0316156108a85760405162461bcd60e51b815260206004820152602260248201527f5374616b696e675661756c743a20546f6b656e20616c7265616479207374616b604482015261195960f21b6064820152608401610353565b604080516060810182523380825242602080840191825283850186815260008a81526001808452878220965187546001600160a01b0319166001600160a01b03909116178755935193860193909355516002948501559181529190529081208054839290610917908490610c23565b9250508190555080600360008282546109309190610c23565b9091555050604051632142170760e11b8152336004820152306024820152604481018590527f00000000000000000000000000000000000000000000000000000000000000006001600160a01b0316906342842e0e90606401600060405180830381600087803b1580156109a357600080fd5b505af11580156109b7573d6000803e3d6000fd5b5050604051636f81582b60e01b815260048101879052600160248201527f00000000000000000000000000000000000000000000000000000000000000006001600160a01b03169250636f81582b9150604401600060405180830381600087803b158015610a2457600080fd5b505af1158015610a38573d6000803e3d6000fd5b50506040518381528692503391507f6173e4d2d9dd52aae0ed37afed3adcf924a490639b759ca93d32dc43366c17d29060200160405180910390a350505061057b6001600055565b600260005403610aa357604051633ee5aeb560e01b815260040160405180910390fd5b6002600055565b600060208284031215610abc57600080fd5b5035919050565b6001600160a01b038116811461057b57600080fd5b600080600080600060808688031215610af057600080fd5b8535610afb81610ac3565b94506020860135610b0b81610ac3565b935060408601359250606086013567ffffffffffffffff80821115610b2f57600080fd5b818801915088601f830112610b4357600080fd5b813581811115610b5257600080fd5b896020828501011115610b6457600080fd5b9699959850939650602001949392505050565b600060208284031215610b8957600080fd5b8135610b9481610ac3565b9392505050565b634e487b7160e01b600052601160045260246000fd5b81810381811115610bc457610bc4610b9b565b92915050565b600060208284031215610bdc57600080fd5b8151610b9481610ac3565b600060208284031215610bf957600080fd5b815160ff81168114610b9457600080fd5b600060208284031215610c1c57600080fd5b5051919050565b80820180821115610bc457610bc4610b9b56fea2646970667358221220bbeecdbf91788788e656c7e3ef8d29aa1625f791401db4f2105d63ac2dcf57d764736f6c63430008140033",
  "linkReferences": {},
  "deployedLinkReferences": {}
}