{
  "_format": "hh-sol-artifact-1",
  "contractName": "TicketNFT",
  "sourceName": "contracts/TicketNFT.sol",
  "abi": [
    {
      "inputs": [],
      "stateMutability": "nonpayable",
      "type": "constructor"
    },
    {
      "inputs": [
        {
          "internalType": "address",
          "name": "sender",
          "type": "address"
        },
        {
          "internalType": "uint256",
          "name": "tokenId",
          "type": "uint256"
        },
        {
          "internalType": "address",
          "name": "owner",
          "type": "address"
        }
      ],
      "name": "ERC721IncorrectOwner",
      "type": "error"
    },
    {
      "inputs": [
        {
          "internalType": "address",
          "name": "operator",
          "type": "address"
        },
        {
          "internalType": "uint256",
          "name": "tokenId",
          "type": "uint256"
        }
      ],
      "name": "ERC721InsufficientApproval",
      "type": "error"
    },
    {
      "inputs": [
        {
          "internalType": "address",
          "name": "approver",
          "type": "address"
        }
      ],
      "name": "ERC721InvalidApprover",
      "type": "error"
    },
    {
      "inputs": [
        {
          "internalType": "address",
          "name": "operator",
          "type": "address"
        }
      ],
      "name": "ERC721InvalidOperator",
      "type": "error"
    },
    {
      "inputs": [
        {
          "internalType": "address",
          "name": "owner",
          "type": "address"
        }
      ],
      "name": "ERC721InvalidOwner",
      "type": "error"
    },
    {
      "inputs": [
        {
          "internalType": "address",
          "name": "receiver",
          "type": "address"
        }
      ],
      "name": "ERC721InvalidReceiver",
      "type": "error"
    },
    {
      "inputs": [
        {
          "internalType": "address",
          "name": "sender",
          "type": "address"
        }
      ],
      "name": "ERC721InvalidSender",
      "type": "error"
    },
    {
      "inputs": [
        {
          "internalType": "uint256",
          "name": "tokenId",
          "type": "uint256"
        }
      ],
      "name": "ERC721NonexistentToken",
      "type": "error"
    },
    {
      "inputs": [],
      "name": "TicketNFT__NotMinter",
      "type": "error"
    },
    {
      "inputs": [],
      "name": "TicketNFT__NotProtocol",
      "type": "error"
    },
    {
      "inputs": [
        {
          "internalType": "uint256",
          "name": "tokenId",
          "type": "uint256"
        }
      ],
      "name": "TicketNFT__TokenDoesNotExist",
      "type": "error"
    },
    {
      "inputs": [
        {
          "internalType": "enum TicketNFT.State",
          "name": "currentState",
          "type": "uint8"
        }
      ],
      "name": "TicketNFT__TransferNotAllowedInState",
      "type": "error"
    },
    {
      "anonymous": false,
      "inputs": [
        {
          "indexed": true,
          "internalType": "address",
          "name": "owner",
          "type": "address"
        },
        {
          "indexed": true,
          "internalType": "address",
          "name": "approved",
          "type": "address"
        },
        {
          "indexed": true,
          "internalType": "uint256",
          "name": "tokenId",
          "type": "uint256"
        }
      ],
      "name": "Approval",
      "type": "event"
    },
    {
      "anonymous": false,
      "inputs": [
        {
          "indexed": true,
          "internalType": "address",
          "name": "owner",
          "type": "address"
        },
        {
          "indexed": true,
          "internalType": "address",
          "name": "operator",
          "type": "address"
        },
        {
          "indexed": false,
          "internalType": "bool",
          "name": "approved",
          "type": "bool"
        }
      ],
      "name": "ApprovalForAll",
      "type": "event"
    },
    {
      "anonymous": false,
      "inputs": [
        {
          "indexed": false,
          "internalType": "uint256",
          "name": "_fromTokenId",
          "type": "uint256"
        },
        {
          "indexed": false,
          "internalType": "uint256",
          "name": "_toTokenId",
          "type": "uint256"
        }
      ],
      "name": "BatchMetadataUpdate",
      "type": "event"
    },
    {
      "anonymous": false,
      "inputs": [
        {
          "indexed": false,
          "internalType": "uint256",
          "name": "_tokenId",
          "type": "uint256"
        }
      ],
      "name": "MetadataUpdate",
      "type": "event"
    },
    {
      "anonymous": false,
      "inputs": [
        {
          "indexed": true,
          "internalType": "address",
          "name": "from",
          "type": "address"
        },
        {
          "indexed": true,
          "internalType": "address",
          "name": "to",
          "type": "address"
        },
        {
          "indexed": true,
          "internalType": "uint256",
          "name": "tokenId",
          "type": "uint256"
        }
      ],
      "name": "Transfer",
      "type": "event"
    },
    {
      "inputs": [
        {
          "internalType": "address",
          "name": "to",
          "type": "address"
        },
        {
          "internalType": "uint256",
          "name": "tokenId",
          "type": "uint256"
        }
      ],
      "name": "approve",
      "outputs": [],
      "stateMutability": "nonpayable",
      "type": "function"
    },
    {
      "inputs": [
        {
          "internalType": "address",
          "name": "owner",
          "type": "address"
        }
      ],
      "name": "balanceOf",
      "outputs": [
        {
          "internalType": "uint256",
          "name": "",
          "type": "uint256"
        }
      ],
      "stateMutability": "view",
      "type": "function"
    },
    {
      "inputs": [
        {
          "internalType": "uint256",
          "name": "tokenId",
          "type": "uint256"
        },
        {
          "internalType": "enum TicketNFT.State",
          "name": "newState",
          "type": "uint8"
        }
      ],
      "name": "changeState_TEMPORARY",
      "outputs": [],
      "stateMutability": "nonpayable",
      "type": "function"
    },
    {
      "inputs": [
        {
          "internalType": "uint256",
          "name": "tokenId",
          "type": "uint256"
        }
      ],
      "name": "getApproved",
      "outputs": [
        {
          "internalType": "address",
          "name": "",
          "type": "address"
        }
      ],
      "stateMutability": "view",
      "type": "function"
    },
    {
      "inputs": [
        {
          "internalType": "uint256",
          "name": "tokenId",
          "type": "uint256"
        }
      ],
      "name": "getFlightDetails",
      "outputs": [
        {
          "components": [
            {
              "internalType": "string",
              "name": "routeHash",
              "type": "string"
            },
            {
              "internalType": "uint256",
              "name": "departureTimestamp",
              "type": "uint256"
            },
            {
              "internalType": "bytes32",
              "name": "fareTierIdentifier",
              "type": "bytes32"
            }
          ],
          "internalType": "struct TicketNFT.FlightDetails",
          "name": "",
          "type": "tuple"
        }
      ],
      "stateMutability": "view",
      "type": "function"
    },
    {
      "inputs": [],
      "name": "getMinter",
      "outputs": [
        {
          "internalType": "address",
          "name": "",
          "type": "address"
        }
      ],
      "stateMutability": "view",
      "type": "function"
    },
    {
      "inputs": [
        {
          "internalType": "uint256",
          "name": "tokenId",
          "type": "uint256"
        }
      ],
      "name": "getTokenState",
      "outputs": [
        {
          "internalType": "enum TicketNFT.State",
          "name": "",
          "type": "uint8"
        }
      ],
      "stateMutability": "view",
      "type": "function"
    },
    {
      "inputs": [],
      "name": "i_minterAddress",
      "outputs": [
        {
          "internalType": "address",
          "name": "",
          "type": "address"
        }
      ],
      "stateMutability": "view",
      "type": "function"
    },
    {
      "inputs": [
        {
          "internalType": "address",
          "name": "owner",
          "type": "address"
        },
        {
          "internalType": "address",
          "name": "operator",
          "type": "address"
        }
      ],
      "name": "isApprovedForAll",
      "outputs": [
        {
          "internalType": "bool",
          "name": "",
          "type": "bool"
        }
      ],
      "stateMutability": "view",
      "type": "function"
    },
    {
      "inputs": [],
      "name": "lendingPoolAddress",
      "outputs": [
        {
          "internalType": "address",
          "name": "",
          "type": "address"
        }
      ],
      "stateMutability": "view",
      "type": "function"
    },
    {
      "inputs": [],
      "name": "marketplaceAddress",
      "outputs": [
        {
          "internalType": "address",
          "name": "",
          "type": "address"
        }
      ],
      "stateMutability": "view",
      "type": "function"
    },
    {
      "inputs": [
        {
          "internalType": "address",
          "name": "to",
          "type": "address"
        },
        {
          "internalType": "uint256",
          "name": "tokenId",
          "type": "uint256"
        },
        {
          "components": [
            {
              "internalType": "string",
              "name": "routeHash",
              "type": "string"
            },
            {
              "internalType": "uint256",
              "name": "departureTimestamp",
              "type": "uint256"
            },
            {
              "internalType": "bytes32",
              "name": "fareTierIdentifier",
              "type": "bytes32"
            }
          ],
          "internalType": "struct TicketNFT.FlightDetails",
          "name": "details",
          "type": "tuple"
        },
        {
          "internalType": "string",
          "name": "tokenURI_",
          "type": "string"
        }
      ],
      "name": "mint",
      "outputs": [],
      "stateMutability": "nonpayable",
      "type": "function"
    },
    {
      "inputs": [],
      "name": "name",
      "outputs": [
        {
          "internalType": "string",
          "name": "",
          "type": "string"
        }
      ],
      "stateMutability": "view",
      "type": "function"
    },
    {
      "inputs": [
        {
          "internalType": "uint256",
          "name": "tokenId",
          "type": "uint256"
        }
      ],
      "name": "ownerOf",
      "outputs": [
        {
          "internalType": "address",
          "name": "",
          "type": "address"
        }
      ],
      "stateMutability": "view",
      "type": "function"
    },
    {
      "inputs": [
        {
          "internalType": "address",
          "name": "from",
          "type": "address"
        },
        {
          "internalType": "address",
          "name": "to",
          "type": "address"
        },
        {
          "internalType": "uint256",
          "name": "tokenId",
          "type": "uint256"
        }
      ],
      "name": "safeTransferFrom",
      "outputs": [],
      "stateMutability": "nonpayable",
      "type": "function"
    },
    {
      "inputs": [
        {
          "internalType": "address",
          "name": "from",
          "type": "address"
        },
        {
          "internalType": "address",
          "name": "to",
          "type": "address"
        },
        {
          "internalType": "uint256",
          "name": "tokenId",
          "type": "uint256"
        },
        {
          "internalType": "bytes",
          "name": "data",
          "type": "bytes"
        }
      ],
      "name": "safeTransferFrom",
      "outputs": [],
      "stateMutability": "nonpayable",
      "type": "function"
    },
    {
      "inputs": [
        {
          "internalType": "address",
          "name": "operator",
          "type": "address"
        },
        {
          "internalType": "bool",
          "name": "approved",
          "type": "bool"
        }
      ],
      "name": "setApprovalForAll",
      "outputs": [],
      "stateMutability": "nonpayable",
      "type": "function"
    },
    {
      "inputs": [
        {
          "internalType": "address",
          "name": "_poolAddress",
          "type": "address"
        }
      ],
      "name": "setLendingPool",
      "outputs": [],
      "stateMutability": "nonpayable",
      "type": "function"
    },
    {
      "inputs": [
        {
          "internalType": "address",
          "name": "_marketplaceAddress",
          "type": "address"
        }
      ],
      "name": "setMarketplace",
      "outputs": [],
      "stateMutability": "nonpayable",
      "type": "function"
    },
    {
      "inputs": [
        {
          "internalType": "address",
          "name": "_vaultAddress",
          "type": "address"
        }
      ],
      "name": "setStakingVault",
      "outputs": [],
      "stateMutability": "nonpayable",
      "type": "function"
    },
    {
      "inputs": [
        {
          "internalType": "uint256",
          "name": "tokenId",
          "type": "uint256"
        },
        {
          "internalType": "enum TicketNFT.State",
          "name": "newState",
          "type": "uint8"
        }
      ],
      "name": "setTokenState",
      "outputs": [],
      "stateMutability": "nonpayable",
      "type": "function"
    },
    {
      "inputs": [],
      "name": "stakingVaultAddress",
      "outputs": [
        {
          "internalType": "address",
          "name": "",
          "type": "address"
        }
      ],
      "stateMutability": "view",
      "type": "function"
    },
    {
      "inputs": [
        {
          "internalType": "bytes4",
          "name": "interfaceId",
          "type": "bytes4"
        }
      ],
      "name": "supportsInterface",
      "outputs": [
        {
          "internalType": "bool",
          "name": "",
          "type": "bool"
        }
      ],
      "stateMutability": "view",
      "type": "function"
    },
    {
      "inputs": [],
      "name": "symbol",
      "outputs": [
        {
          "internalType": "string",
          "name": "",
          "type": "string"
        }
      ],
      "stateMutability": "view",
      "type": "function"
    },
    {
      "inputs": [
        {
          "internalType": "uint256",
          "name": "tokenId",
          "type": "uint256"
        }
      ],
      "name": "tokenURI",
      "outputs": [
        {
          "internalType": "string",
          "name": "",
          "type": "string"
        }
      ],
      "stateMutability": "view",
      "type": "function"
    },
    {
      "inputs": [
        {
          "internalType": "address",
          "name": "from",
          "type": "address"
        },
        {
          "internalType": "address",
          "name": "to",
          "type": "address"
        },
        {
          "internalType": "uint256",
          "name": "tokenId",
          "type": "uint256"
        }
      ],
      "name": "transferFrom",
      "outputs": [],
      "stateMutability": "nonpayable",
      "type": "function"
    }
  ],
  "bytecode": "0x60a06040523480156200001157600080fd5b506040518060400160405280600f81526020016e119b1a59da1d151a58dad95d139195608a1b81525060405180604001604052806003815260200162232a2760e91b815250816000908162000067919062000128565b50600162000076828262000128565b50503360805250620001f4565b634e487b7160e01b600052604160045260246000fd5b600181811c90821680620000ae57607f821691505b602082108103620000cf57634e487b7160e01b600052602260045260246000fd5b50919050565b601f8211156200012357600081815260208120601f850160051c81016020861015620000fe5750805b601f850160051c820191505b818110156200011f578281556001016200010a565b5050505b505050565b81516001600160401b0381111562000144576200014462000083565b6200015c8162000155845462000099565b84620000d5565b602080601f8311600181146200019457600084156200017b5750858301515b600019600386901b1c1916600185901b1785556200011f565b600085815260208120601f198616915b82811015620001c557888601518255948401946001909101908401620001a4565b5085821015620001e45787850151600019600388901b60f8161c191681555b5050505050600190811b01905550565b608051611ae76200023a6000396000818161026e0152818161039f015281816104ec015281816107a101528181610849015281816108f301526109a20152611ae76000f3fe608060405234801561001057600080fd5b506004361061018e5760003560e01c806373ad6c2d116100de578063d542c68711610097578063e985e9c511610071578063e985e9c51461038a578063f36675171461039d578063f45fd0f3146103c3578063fe560792146103f357600080fd5b8063d542c68714610351578063daa17f4914610364578063e041b2a51461037757600080fd5b806373ad6c2d146102ea57806395d89b41146102fd578063a22cb46514610305578063b88d4fde14610318578063c87b56dd1461032b578063d3ae26b31461033e57600080fd5b806323b872dd1161014b57806342842e0e1161012557806342842e0e146102905780636352211e146102a35780636f81582b146102b657806370a08231146102c957600080fd5b806323b872dd1461024357806339160dd2146102565780633dc347591461026957600080fd5b806301ffc9a71461019357806306fdde03146101bb578063081812fc146101d0578063095ea7b3146101fb578063113aa8b1146102105780631853500814610223575b600080fd5b6101a66101a1366004611499565b610406565b60405190151581526020015b60405180910390f35b6101c3610417565b6040516101b29190611506565b6101e36101de366004611519565b6104a9565b6040516001600160a01b0390911681526020016101b2565b61020e61020936600461154e565b6104d2565b005b61020e61021e366004611578565b6104e1565b610236610231366004611519565b61054c565b6040516101b29190611593565b61020e6102513660046115cf565b61062e565b6009546101e3906001600160a01b031681565b6101e37f000000000000000000000000000000000000000000000000000000000000000081565b61020e61029e3660046115cf565b6106be565b6101e36102b1366004611519565b6106de565b61020e6102c436600461160b565b6106e9565b6102dc6102d7366004611578565b61074e565b6040519081526020016101b2565b61020e6102f8366004611578565b610796565b6101c3610801565b61020e61031336600461163f565b610810565b61020e610326366004611725565b61081b565b6101c3610339366004611519565b610833565b600a546101e3906001600160a01b031681565b61020e61035f3660046117c1565b61083e565b600b546101e3906001600160a01b031681565b61020e61038536600461160b565b6108e8565b6101a6610398366004611877565b610969565b7f00000000000000000000000000000000000000000000000000000000000000006101e3565b6103e66103d1366004611519565b60009081526008602052604090205460ff1690565b6040516101b291906118c0565b61020e610401366004611578565b610997565b600061041182610a02565b92915050565b606060008054610426906118e8565b80601f0160208091040260200160405190810160405280929190818152602001828054610452906118e8565b801561049f5780601f106104745761010080835404028352916020019161049f565b820191906000526020600020905b81548152906001019060200180831161048257829003601f168201915b5050505050905090565b60006104b482610a27565b506000828152600460205260409020546001600160a01b0316610411565b6104dd828233610a60565b5050565b336001600160a01b037f0000000000000000000000000000000000000000000000000000000000000000161461052a57604051631a19661b60e11b815260040160405180910390fd5b600a80546001600160a01b0319166001600160a01b0392909216919091179055565b604080516060808201835281526000602082018190529181019190915260008281526007602052604090819020815160608101909252805482908290610591906118e8565b80601f01602080910402602001604051908101604052809291908181526020018280546105bd906118e8565b801561060a5780601f106105df5761010080835404028352916020019161060a565b820191906000526020600020905b8154815290600101906020018083116105ed57829003601f168201915b50505050508152602001600182015481526020016002820154815250509050919050565b6001600160a01b03821661065d57604051633250574960e11b8152600060048201526024015b60405180910390fd5b600061066a838333610a6d565b9050836001600160a01b0316816001600160a01b0316146106b8576040516364283d7b60e01b81526001600160a01b0380861660048301526024820184905282166044820152606401610654565b50505050565b6106d98383836040518060200160405280600081525061081b565b505050565b600061041182610a27565b6009546001600160a01b0316331480159061070f5750600a546001600160a01b03163314155b80156107265750600b546001600160a01b03163314155b156107445760405163032a5b9160e01b815260040160405180910390fd5b6104dd8282610bc7565b60006001600160a01b03821661077a576040516322718ad960e21b815260006004820152602401610654565b506001600160a01b031660009081526003602052604090205490565b336001600160a01b037f000000000000000000000000000000000000000000000000000000000000000016146107df57604051631a19661b60e11b815260040160405180910390fd5b600b80546001600160a01b0319166001600160a01b0392909216919091179055565b606060018054610426906118e8565b6104dd338383610bfb565b61082684848461062e565b6106b83385858585610c9a565b606061041182610dc5565b336001600160a01b037f0000000000000000000000000000000000000000000000000000000000000000161461088757604051631a19661b60e11b815260040160405180910390fd5b6108918484610ed6565b6000838152600760205260409020825183919081906108b09082611968565b5060208281015160018301556040928301516002909201919091556000858152600890915220805460ff191690556106b88382610f3b565b336001600160a01b037f0000000000000000000000000000000000000000000000000000000000000000161461093157604051631a19661b60e11b815260040160405180910390fd5b6000828152600260205260409020546001600160a01b03166107445760405163300458d760e01b815260048101839052602401610654565b6001600160a01b03918216600090815260056020908152604080832093909416825291909152205460ff1690565b336001600160a01b037f000000000000000000000000000000000000000000000000000000000000000016146109e057604051631a19661b60e11b815260040160405180910390fd5b600980546001600160a01b0319166001600160a01b0392909216919091179055565b60006001600160e01b03198216632483248360e11b1480610411575061041182610f8b565b6000818152600260205260408120546001600160a01b03168061041157604051637e27328960e01b815260048101849052602401610654565b6106d98383836001610fdb565b6000828152600260205260408120546001600160a01b031680610a9d57610a958585856110e1565b915050610bc0565b6001600160a01b038516610ab657610a958585856110e1565b60008481526008602052604081205460ff1690816003811115610adb57610adb6118aa565b03610af457610aeb8686866110e1565b92505050610bc0565b6001816003811115610b0857610b086118aa565b148015610b1f57506009546001600160a01b031633145b15610b2f57610aeb8686866110e1565b6002816003811115610b4357610b436118aa565b148015610b5a5750600a546001600160a01b031633145b15610b6a57610aeb8686866110e1565b6003816003811115610b7e57610b7e6118aa565b148015610b955750600b546001600160a01b031633145b15610ba557610aeb8686866110e1565b8060405163263b71af60e21b815260040161065491906118c0565b9392505050565b6000828152600860205260409020805482919060ff19166001836003811115610bf257610bf26118aa565b02179055505050565b6001600160a01b038216610c2d57604051630b61174360e31b81526001600160a01b0383166004820152602401610654565b6001600160a01b03838116600081815260056020908152604080832094871680845294825291829020805460ff191686151590811790915591519182527f17307eab39ab6107e8899845ad3d59bd9653f200f220920489ca2b5937696c31910160405180910390a3505050565b6001600160a01b0383163b15610dbe57604051630a85bd0160e11b81526001600160a01b0384169063150b7a0290610cdc908890889087908790600401611a28565b6020604051808303816000875af1925050508015610d17575060408051601f3d908101601f19168201909252610d1491810190611a65565b60015b610d80573d808015610d45576040519150601f19603f3d011682016040523d82523d6000602084013e610d4a565b606091505b508051600003610d7857604051633250574960e11b81526001600160a01b0385166004820152602401610654565b805160208201fd5b6001600160e01b03198116630a85bd0160e11b14610dbc57604051633250574960e11b81526001600160a01b0385166004820152602401610654565b505b5050505050565b6060610dd082610a27565b5060008281526006602052604081208054610dea906118e8565b80601f0160208091040260200160405190810160405280929190818152602001828054610e16906118e8565b8015610e635780601f10610e3857610100808354040283529160200191610e63565b820191906000526020600020905b815481529060010190602001808311610e4657829003601f168201915b505050505090506000610e8160408051602081019091526000815290565b90508051600003610e93575092915050565b815115610ec5578082604051602001610ead929190611a82565b60405160208183030381529060405292505050919050565b610ece846111da565b949350505050565b6001600160a01b038216610f0057604051633250574960e11b815260006004820152602401610654565b6000610f0e83836000610a6d565b90506001600160a01b038116156106d9576040516339e3563760e11b815260006004820152602401610654565b6000828152600660205260409020610f538282611968565b506040518281527ff8e1a15aba9398e019f0b49df1a4fde98ee17ae345cb5f6b5e2c27f5033e8ce79060200160405180910390a15050565b60006001600160e01b031982166380ac58cd60e01b1480610fbc57506001600160e01b03198216635b5e139f60e01b145b8061041157506301ffc9a760e01b6001600160e01b0319831614610411565b8080610fef57506001600160a01b03821615155b156110b1576000610fff84610a27565b90506001600160a01b0383161580159061102b5750826001600160a01b0316816001600160a01b031614155b801561103e575061103c8184610969565b155b156110675760405163a9fbf51f60e01b81526001600160a01b0384166004820152602401610654565b81156110af5783856001600160a01b0316826001600160a01b03167f8c5be1e5ebec7d5bd14f71427d1e84f3dd0314c0f7b2291e5b200ac8c7c3b92560405160405180910390a45b505b5050600090815260046020526040902080546001600160a01b0319166001600160a01b0392909216919091179055565b6000828152600260205260408120546001600160a01b039081169083161561110e5761110e81848661124e565b6001600160a01b0381161561114c5761112b600085600080610fdb565b6001600160a01b038116600090815260036020526040902080546000190190555b6001600160a01b0385161561117b576001600160a01b0385166000908152600360205260409020805460010190555b60008481526002602052604080822080546001600160a01b0319166001600160a01b0389811691821790925591518793918516917fddf252ad1be2c89b69c2b068fc378daa952ba7f163c4a11628f55a4df523b3ef91a4949350505050565b60606111e582610a27565b5060006111fd60408051602081019091526000815290565b9050600081511161121d5760405180602001604052806000815250610bc0565b80611227846112b2565b604051602001611238929190611a82565b6040516020818303038152906040529392505050565b611259838383611345565b6106d9576001600160a01b03831661128757604051637e27328960e01b815260048101829052602401610654565b60405163177e802f60e01b81526001600160a01b038316600482015260248101829052604401610654565b606060006112bf836113a8565b600101905060008167ffffffffffffffff8111156112df576112df611670565b6040519080825280601f01601f191660200182016040528015611309576020820181803683370190505b5090508181016020015b600019016f181899199a1a9b1b9c1cb0b131b232b360811b600a86061a8153600a850494508461131357509392505050565b60006001600160a01b03831615801590610ece5750826001600160a01b0316846001600160a01b0316148061137f575061137f8484610969565b80610ece5750506000908152600460205260409020546001600160a01b03908116911614919050565b60008072184f03e93ff9f4daa797ed6e38ed64bf6a1f0160401b83106113e75772184f03e93ff9f4daa797ed6e38ed64bf6a1f0160401b830492506040015b6d04ee2d6d415b85acef81000000008310611413576d04ee2d6d415b85acef8100000000830492506020015b662386f26fc10000831061143157662386f26fc10000830492506010015b6305f5e1008310611449576305f5e100830492506008015b612710831061145d57612710830492506004015b6064831061146f576064830492506002015b600a83106104115760010192915050565b6001600160e01b03198116811461149657600080fd5b50565b6000602082840312156114ab57600080fd5b8135610bc081611480565b60005b838110156114d15781810151838201526020016114b9565b50506000910152565b600081518084526114f28160208601602086016114b6565b601f01601f19169290920160200192915050565b602081526000610bc060208301846114da565b60006020828403121561152b57600080fd5b5035919050565b80356001600160a01b038116811461154957600080fd5b919050565b6000806040838503121561156157600080fd5b61156a83611532565b946020939093013593505050565b60006020828403121561158a57600080fd5b610bc082611532565b6020815260008251606060208401526115af60808401826114da565b905060208401516040840152604084015160608401528091505092915050565b6000806000606084860312156115e457600080fd5b6115ed84611532565b92506115fb60208501611532565b9150604084013590509250925092565b6000806040838503121561161e57600080fd5b8235915060208301356004811061163457600080fd5b809150509250929050565b6000806040838503121561165257600080fd5b61165b83611532565b91506020830135801515811461163457600080fd5b634e487b7160e01b600052604160045260246000fd5b6040516060810167ffffffffffffffff811182821017156116a9576116a9611670565b60405290565b600067ffffffffffffffff808411156116ca576116ca611670565b604051601f8501601f19908116603f011681019082821181831017156116f2576116f2611670565b8160405280935085815286868601111561170b57600080fd5b858560208301376000602087830101525050509392505050565b6000806000806080858703121561173b57600080fd5b61174485611532565b935061175260208601611532565b925060408501359150606085013567ffffffffffffffff81111561177557600080fd5b8501601f8101871361178657600080fd5b611795878235602084016116af565b91505092959194509250565b600082601f8301126117b257600080fd5b610bc0838335602085016116af565b600080600080608085870312156117d757600080fd5b6117e085611532565b935060208501359250604085013567ffffffffffffffff8082111561180457600080fd5b908601906060828903121561181857600080fd5b611820611686565b82358281111561182f57600080fd5b61183b8a8286016117a1565b825250602083013560208201526040830135604082015280945050606087013591508082111561186a57600080fd5b50611795878288016117a1565b6000806040838503121561188a57600080fd5b61189383611532565b91506118a160208401611532565b90509250929050565b634e487b7160e01b600052602160045260246000fd5b60208101600483106118e257634e487b7160e01b600052602160045260246000fd5b91905290565b600181811c908216806118fc57607f821691505b60208210810361191c57634e487b7160e01b600052602260045260246000fd5b50919050565b601f8211156106d957600081815260208120601f850160051c810160208610156119495750805b601f850160051c820191505b81811015610dbc57828155600101611955565b815167ffffffffffffffff81111561198257611982611670565b6119968161199084546118e8565b84611922565b602080601f8311600181146119cb57600084156119b35750858301515b600019600386901b1c1916600185901b178555610dbc565b600085815260208120601f198616915b828110156119fa578886015182559484019460019091019084016119db565b5085821015611a185787850151600019600388901b60f8161c191681555b5050505050600190811b01905550565b6001600160a01b0385811682528416602082015260408101839052608060608201819052600090611a5b908301846114da565b9695505050505050565b600060208284031215611a7757600080fd5b8151610bc081611480565b60008351611a948184602088016114b6565b835190830190611aa88183602088016114b6565b0194935050505056fea26469706673582212205b6719345930793af9c92ec56e627a2fdb1955fbeddb3d724ee0604e9fd433d564736f6c63430008140033",
  "linkReferences": {},
  "deployedLinkReferences": {}
}